:03000000020A6B86
:0C0A6B00787FE4F6D8FD758131020800A8
:10095D002056454E4B4154412052454444592000A8
:10096D00414A41592052454444590020204E41529C
:10097D004153494D484120002043484152414E20AA
:10098D002F52495348490054454D504552415455F5
:04099D0052453D0082
:10080000120A177BFF7A09795D1209A17FE87E033E
:100810001209D2120A177BFF7A09796D1209A17F9A
:10082000BC7E021209D2120A177BFF7A097978126C
:1008300009A17FBC7E021209D2120A177BFF7A0936
:1008400079851209A17FBC7E021209D2120A177B98
:10085000FF7A0979941209A1E4F5A07580FFF5B03B
:100860007F8C120A4F7F017E001209D2120A3712C2
:1008700009F27F43120A5D7F327E001209D280D8CE
:0709CB00120A4F7F017E00BC
:1009D200E4FDFCC3ED9FEC9E5015E4FBFA0BBB005B
:0F09E200010ABA04F8BBFBF50DBD00010C80E45F
:0109F10022E3
:0E0A4F008FA0C2B0C2B1D2B21209CEC2B22282
:0E0A5D008FA0D2B0C2B1D2B21209CEC2B22264
:100A17007F011209CB7F061209CB7F0E1209CB7F0C
:100A2700381209CB7F80120A4F7F017E000209D25C
:1009A1008B088A09890AAB08AA09A90A1208EFFF6C
:1009B1006017120A5D7F027E001209D27401250AB6
:0A09C100F50AE43509F50980DD228E
:04088000AB07AA0612
:10088400900000D3EB9400EA9400402A7C007D0A97
:10089400AF03AE02120908AF82EF25E0240AF8A6DE
:1008A4000408A6057C007D0AAF03AE02120908AA5B
:1008B40006AB07A380CDE582158270021583C3E5DC
:1008C40083648094804023AF82EF25E0240AF808F3
:1008D400E62430F5A0C2B1D2B0D2B21209CEC2B26F
:0A08E400E582158270D8158380D4D8
:0108EE0022E7
:100A3700C2B37F027E001209D2D2B320B5FD7F0276
:080A47007E001209D2D2B52293
:1009F200C2B47F027E001209D2AF807508008F094F
:100A02007F017E001209D2D2B4E509240BFFE4353E
:050A120008FE0208804F
:1008EF00BB010689828A83E0225002E722BBFE0207
:0908FF00E32289828A83E493223A
:10090800BC000BBE0029EF8DF084FFADF022E4CCD3
:10091800F875F008EF2FFFEE33FEEC33FCEE9DEC9C
:10092800984005FCEE9DFE0FD5F0E9E4CEFD22EDE2
:10093800F8F5F0EE8420D21CFEADF075F008EF2F2C
:10094800FFED33FD4007985006D5F0F222C398FD1D
:050958000FD5F0EA22BA
:00000001FF
