:030000000208CC27
:0C08CC00787FE4F6D8FD75812502091341
:100985001412004000F90024003000190012000282
:0609950000F80000001054
:0D09580025E02412F808E6F5A07F647E007B
:10096500E4FDFCD3ED9FEC9E5015E4FBFA0BBB00B8
:0F097500010AEB64064A70F50DBD00010C80E429
:010984002250
:10080000E4F508F509F510F511F50EF50FF50CF501
:100810000DF50AF50B0509E50970020508640245A6
:1008200008700CF508F509050BE50B7002050A7553
:10083000A0FFD293C291C292C290E50B120958E573
:100840000B640A450A700CF50AF50B050DE50D70F1
:1008500002050C75A0FFD292C290C293C291E50D21
:10086000120958E50D640A450C700CF50CF50D05E0
:100870000FE50F7002050E75A0FFD291C292C293D0
:10088000C290E50F120958E50F640A450E700CF589
:100890000EF50F0511E5117002051075A0FFD2903D
:1008A000C292C293C291E511120958E511640A453A
:1008B000107010F50AF50BF50CF50DF50EF50FF5AA
:0C08C00010F51112096175A0FF02081567
:1008D800020800E493A3F8E493A34003F68001F22E
:1008E80008DFF48029E493A3F85407240CC8C33321
:1008F800C4540F4420C8834004F456800146F6DFF0
:10090800E4800B0102040810204080900985E47EF1
:10091800019360BCA3FF543F30E509541FFEE493E4
:10092800A360010ECF54C025E060A840B8E493A3AB
:10093800FAE493A3F8E493A3C8C582C8CAC583CAD6
:10094800F0A3C8C582C8CAC583CADFE9DEE780BE8E
:01099B00005B
:00000001FF
