:03000000020A9E53
:0C0A9E00787FE4F6D8FD75813902000372
:10044400205768696368206F7065726174696F6EA4
:1004540020596F752077616E7420746F20706572F7
:10046400666F726D20526561642852292066726F2E
:100474006D2074686520454550524F4D206F7220A1
:10048400577269746528572920696E20746F207427
:10049400686520454550524F4D2020000A0D00202C
:1004A400456E74657228522F5729203A00205265F0
:1004B4006164206D6F64652073656C656374656445
:1004C400200020456E746572207468652070616731
:1004D40065206E756D62657220796F752077616E27
:1004E4007420746F20726561642066726F6D203AA7
:1004F400200020456E746572656420706167652014
:100504006E756D62657220697320203A2000206F39
:100514006F70732E2E2E20696E76616C6964207064
:10052400616765206E756D62657220002050616799
:100534006520002073656C65637465642C206E6FA0
:100544007720796F752063616E207265616420661F
:10055400726F6D20706167652000204461746120B2
:10056400696E20002070616765206973203A00205D
:10057400577269746520206D6F64652073656C65BE
:10058400637465640020456E746572207468652028
:1005940070616765206E756D62657220796F752074
:1005A40077616E7420746F20706572666F726D204F
:1005B4007772697465206F7065726174696F6E20FB
:1005C4003A20002073656C65637465642C206E6F3B
:1005D4007720796F752063616E2077726974652066
:1005E400696E20746F2074686520706167652000EF
:1005F40020456E74657220746865204461746120BE
:10060400796F752077616E7420746F2077726974C6
:1006140065203A0020456E746572656420646174D7
:1006240061206973203A200020446174612077724C
:10063400697474656E207375636365737366756C32
:040644006C792000AD
:10000300120A8F7BFF7A0479441209E57BFF7A0495
:1000130079A01209E57BFF7A0479A31209E57BFF36
:100023007A0479A01209E5120AB28F08E50864522E
:100033006009E5086472600302021C7BFF7A04799D
:10004300B11209E57BFF7A0479A01209E57BFF7AF7
:100053000479C61209E51209118E0A8F0B7BFF7A08
:100063000479A01209E57BFF7A0479F61209E57B8E
:10007300007A007921AF0BAE0A12075F7B007A008A
:1000830079211209E57BFF7A0479A01209E5E50AD3
:10009300600302018EE50B24A8700302012E24F5F0
:1000A30070030201662462B42000400302018E90B3
:1000B30000C075F003A4C58325F0C5837302012036
:1000C30002012202012402012602012802012A025E
:1000D300012C02018E02018E020130020132020163
:1000E3003402013602013802013A02013C02013EA8
:1000F30002014302014802014D020152020157026B
:10010300015C02016102016602016B0201700201DE
:100113007502017A02017F020184020189801C8039
:100123001F802280258028802B802E80318039807B
:100133003C803F804280458048804BE4F509805DE8
:1001430075091080587509208053750930804E75E4
:10015300094080497509508044750960803F7509DD
:1001630070803A750980803575099080307509A0D3
:10017300802B7509B080267509C080217509D08050
:100183001C7509E080177509F080127BFF7A0579E9
:10019300121209E57BFF7A0479A01209E5D3E50B76
:1001A3009400E50A9400405FE50B9421E50A94006E
:1001B30050557BFF7A0579301209E57B007A007987
:1001C300211209E57BFF7A0579371209E57B007A6D
:1001D3000079211209E57BFF7A0479A01209E57BF6
:1001E300FF7A05795E1209E57B007A00792112090D
:1001F300E57BFF7A0579681209E5AF0912098B7B64
:10020300007A00792180067BFF7A0579121209E5CD
:100213007BFF7A0479A01209E5E50864576009E5D4
:1002230008647760030200037BFF7A057973120980
:10023300E57BFF7A0479A01209E57BFF7A057989CA
:100243001209E51209118E0A8F0B7BFF7A0479A03C
:100253001209E57BFF7A0479F61209E57B007A003F
:100263007921AF0BAE0A12075F7B007A0079211266
:1002730009E57BFF7A0479A01209E5E50A60030228
:10028300037BE50B24A8700302031B24F570030210
:1002930003532462B42000400302037B9002AD7534
:1002A300F003A4C58325F0C5837302030D02030F76
:1002B30002031102031302031502031702031902B7
:1002C300037B02037B02031D02031F0203210203BC
:1002D3002302032502032702032902032B0203300F
:1002E30002033502033A02033F02034402034902B5
:1002F300034E02035302035802035D020362020327
:100303006702036C020371020376801C801F802244
:1003130080258028802B802E80318039803C803F4F
:10032300804280458048804BE4F509805D75091063
:1003330080587509208053750930804E75094080B7
:10034300497509508044750960803F750970803A8A
:10035300750980803575099080307509A0802B75EB
:1003630009B080267509C080217509D0801C7509E4
:10037300E080177509F080127BFF7A057912120964
:10038300E57BFF7A0479A01209E5D3E50B9400E538
:100393000A9400500302042FE50B9421E50A94000C
:1003A300400302042F7BFF7A0579301209E57B00B5
:1003B3007A0079211209E57BFF7A0579C71209E5ED
:1003C3007B007A0079211209E57BFF7A0479A01278
:1003D30009E57BFF7A0579F41209E57BFF7A047955
:1003E300A01209E57B007A0079217D117C001208B7
:1003F300507BFF7A0679181209E57B007A00792190
:100403001209E57BFF7A0479A01209E57B007A00E3
:100413007921AF091209567BFF7A06792C1209E577
:100423007BFF7A0479A01209E50200037BFF7A05BA
:0E04330079121209E57BFF7A0479A01209E51F
:03044100020003B3
:100A6100D290D2917F017E00120A0AC2907F017E4C
:070A710000120A0AC29122E3
:100A7800C290D2917F017E00120A0AD2907F017E35
:070A880000120A0AC29122CC
:100A2A008F20E4FFA2079290D291C291E52025E09F
:0D0A3A00F5200FBF08EE2090FDD291C29173
:010A4700228C
:100A48008F188D19120A617FA0120A2AAF18120A8C
:090A58002AAF19120A2A020A78D9
:100956008F0C8B0D8A0E890F120A617FA0120A2A4C
:10096600AF0C8019AB0DAA0EA90F1206486013052D
:100976000FE50F7002050E14F9120648FF120A2A37
:0509860080E2020A7886
:1008B800A2909200E4FFE52025E0F520A2909200A6
:1008C800D291C2910FBF08EEE520640D7022D2903C
:1008D800D2917F01FE120A0AC2917F017E00120A9C
:1008E8000AC290120A787F017E00120A0AAF2022FB
:1008F800C290D2917F017E00120A0AC2917F017EC6
:0809080000120A0AD290AF2090
:0109100022C4
:0209BE008F1A8E
:1009C000120A617FA0120A2AAF1A120A2A120A61B9
:1009D0007FA1120A2A1208B88F1B120A78AF1B12C5
:0409E0000AAAAF1B95
:0109E40022F0
:02098B008F0CCF
:10098D00120A617FA0120A2AAF0C120A2A120A61FA
:10099D007FA1120A2AE4F50D1208B87421250DF86D
:1009AD00A607050DE50DC3941040ED120A787F21C1
:0109BD002217
:100A0A00E4FDFCC3ED9FEC9E5015E4FBFA0BBB0022
:0F0A1A00010ABA04F8BBFBF50DBD00010C80E426
:010A290022AA
:0F0A8F00759850438920758DFD758BFDD28E2291
:080AAA008F993099FDC29922D9
:1009E5008B0C8A0D890EAB0CAA0DA90E1206486058
:1009F50013050EE50E7002050D14F9120648FF12D7
:050A05000AAA80E222B4
:080AB2003098FDC298AF9922B3
:0A0850008B0C8A0D890E8C0F8D10A1
:10085A00E4FDFCE51024FFFFE50F34FFFEC3ED9F26
:10086A00EC9E5038120AB2AB0CAA0DA90E8D828CDE
:10087A0083EF1206A08D828C83120661FF640D60DD
:10088A0004EFB40A10AB0CAA0DA90E8D828C83E476
:10089A001206A080070DBD00010C80B7AB0CAA0D93
:0E08AA00A90EAE04AF058F828E83E40206A075
:10091100E4FBFAF582F583C3E5829402E583648002
:100921009480502C120AB2A907E9C3943040E8E937
:10093100D3943950E27C007D0AAF03AE021206C2A5
:10094100E924D0FDEC34FFCD2FFBED3EFAA380C7A7
:04095100AE02AF0340
:01095500227F
:0A075F008E0C8F0D8B0E8A0F89108F
:10076900E4F511F512E50D450C7011743012068E81
:10077900AB0EAA0FA91090000102084BD3E50D9406
:1007890000E50C94004036AE0CAF0D7C007D0A12DA
:1007990006D4ED2430AB0EAA0FA91085128285115B
:1007A900831206A0AE0CAF0D7C007D0A1206D48E12
:1007B9000C8F0D0512E51270C3051180BF85111349
:1007C900851214E4F515F516AE13AF147C007D02FD
:1007D900120729C3E5169FEE6480F8E51564809831
:0207E90050546A
:1007EB00AB0EAA0FA910851682851583120661F52B
:1007FB0017C3E5149516CFE5139515CF24FFCF340A
:10080B00FF8F82F58312066185168285158312068A
:10081B00A0C3E5149516CFE5139515CF24FFCF3460
:0A082B00FF8F82F583E5171206A087
:100835000516E516709605158092AB0EAA0FA91040
:0A084500851282851183E41206A0DB
:01084F002286
:10064800BB010689828A83E0225002E722BBFE02B0
:09065800E32289828A83E49322E3
:10066100BB010CE58229F582E5833AF583E022504E
:1006710006E92582F8E622BBFE06E92582F8E22298
:0D068100E58229F582E5833AF583E49322B2
:10068E00BB010689828A83F0225002F722BBFE014B
:02069E00F32245
:1006A000F8BB010DE58229F582E5833AF583E8F090
:1006B000225006E92582C8F622BBFE05E92582C83C
:0206C000F22224
:1006C200EF8DF0A4A8F0CF8CF0A428CE8DF0A42E4C
:0206D200FE2206
:1006D400BC000BBE0029EF8DF084FFADF022E4CC0A
:1006E400F875F008EF2FFFEE33FEEC33FCEE9DECD3
:1006F400984005FCEE9DFE0FD5F0E9E4CEFD22ED19
:10070400F8F5F0EE8420D21CFEADF075F008EF2F62
:10071400FFED33FD4007985006D5F0F222C398FD53
:050724000FD5F0EA22F0
:10072900C2D5EC30E709B2D5E4C39DFDE49CFCEEEB
:1007390030E715B2D5E4C39FFFE49EFE1206D4C389
:10074900E49DFDE49CFC80031206D430D507C3E484
:060759009FFFE49EFE225A
:00000001FF
