:030000000209648E
:0C096400787FE4F6D8FD758107020800DA
:0708FE001209407F0A7E0091
:10090500E4FDFCC3ED9FEC9E5015E4FBFA0BBB0028
:0F091500010ABA04F8BBFBF50DBD00010C80E42C
:0109240022B0
:100940008FA0C2B0C2B1D2B27F017E00120905C22F
:02095000B222D1
:100952008FA0D2B0C2B1D2B27F017E00120905C20D
:02096200B222BF
:100925007F381208FE7F0F1208FE7F011208FE7F36
:0B093500811209407F0A7E00020905C4
:10083A00D284D285D286D287C280C281C282C28342
:10084A002087057F311209522086057F341209520A
:10085A002085057F371209522084057F2A12095202
:01086A00226B
:10086B00D284D285D286D287C280C281C282C28311
:10087B002087057F321209522086057F35120952D7
:10088B002085057F381209522084057F30120952CA
:01089B00223A
:10089C00D284D285D286D287C280C281C282C283E0
:1008AC002087057F331209522086057F36120952A4
:1008BC002085057F391209522084057F23120952A5
:0108CC002209
:1008CD00D284D285D286D287C280C281C282C283AF
:1008DD002087057F411209522086057F4212095259
:1008ED002085057F431209522084057F4412095249
:0108FD0022D8
:100800001209257F1E7E00120905D280D281D28274
:10081000D283C284C285C286C28720830512083A69
:1008200080E120820512086B80D920810512089C86
:0A08300080D12080CE1208CD80C9CF
:00000001FF
