:03000000020A0AE7
:0C0A0A00787FE4F6D8FD75813C0208847A
:1008450057726974652044617461203A2076656E3B
:100855006B6174612072656464790076656E6B61A5
:10086500746120726564647920000A0D0052656127
:0F08750064206261636B2044617461203A20004B
:0D09FD00D290120951C290120953C29122EA
:10099E008F20E4FFA2079290D291C291E52025E02C
:0D09AE00F5200FBF08EE2090FDD291C29100
:0109BB002219
:10080000A2909200E4FFE52025E0F520A29092005E
:10081000D291C2910FBF08EEE520640D701AD290FC
:10082000D2917F01FE120957C291120953C2901250
:100830000A16120953AF202212094FC2911209530E
:04084000D290AF2083
:010844002291
:0B0A160012094FD290120953C2912226
:1009BC008F0C8D0D1209FD7FA012099EAF0C120930
:0909CC009EAF0D12099E020A16ED
:020977008F0EE1
:100979001209FD7FA012099EAF0E12099E1209FDF0
:100989007FA112099E1208008F0F120A16AF0F12CB
:040999000A21AF0F71
:01099D002237
:1008BC008F088B098A0A890B1209FD7FA012099EE9
:1008CC00AF088019AB09AA0AA90B1209D560130548
:1008DC000BE50B7002050A14F91209D5FF12099EDB
:0508EC0080E2020A1683
:0208F1008F086E
:1008F3001209FD7FA012099EAF0812099E1209FD7D
:100903007FA112099EE4F50912080074212509F854
:10091300A6070509E509C3940E40ED120A167F21C7
:0109230022B1
:0F09EE00759850438920758DFD758BFDD28E2233
:080A21008F993099FDC2992262
:060924007BFF7A08796FE9
:10092A008B088A09890AAB08AA09A90A1209D5609B
:10093A0013050AE50A7002050914F91209D5FF120E
:05094A000A2180E222F9
:08094F00C290D2917F017E00ED
:10095700E4FDFCC3ED9FEC9E5015E4FBFA0BBB00D6
:0F096700010ABA04F8BBFBF50DBD00010C80E4DA
:01097600225E
:100884001209EE7BFF7A08794512092A1209537B73
:10089400FF7A0879601F1208BC1209247BFF7A08CA
:1008A400797212092AE4FF1208F17B007A00792197
:0808B40012092A12092480C870
:1009D500BB010689828A83E0225002E722BBFE0220
:0909E500E32289828A83E4932253
:00000001FF
