:03000000020B925E
:0C0B9200787FE4F6D8FD758112020A8C11
:090B9E00566F6C7461673A200087
:100A8C00120B3E7BFF7A0B799E120AF1120B818FAF
:100A9C00097F877E00120B61E50975F06484120BE7
:100AAC0018E50975F00A8475F00A84E5F0120B1844
:100ABC00E50975F00A84E5F02430FDE433FC1209F5
:100ACC00AB7BA17AA079A0783C120800E4FBFA7900
:100ADC00A078401209091209E4120B1E7F607E00F7
:050AEC00120B1E80A7A3
:100B3E007F387E00120B617F0E7E00120B617F06E6
:100B4E007E00120B617F017E00120B617F807E00A2
:030B5E00020B6126
:100B61008FA0C2B2C2B3D2B4E4F50AF50B050BE50E
:100B71000B7002050AB4E8F5E50AB403F0C2B42229
:060B18002430FFE433FE6F
:100B1E008FA0D2B2C2B3D2B4E4F50AF50B050BE541
:100B2E000B7002050AB4E8F5E50AB403F0C2B4226C
:100AF1008B108A118912AB10AA11A912120A656012
:100B0100150512E5127002051114F9120A65FF7E2E
:070B110000120B1E80E02220
:100B8100C281D280D2812082FDC280859008AF08C7
:010B91002241
:10080000EC4D6011E8497017ED33EC3304600DE4F2
:10081000FCFFFEFD22E933E8330470F8020A5012AF
:100820000A1B58046009E4CC2481500628500902B0
:100830000A5A284003020A57C0E0EB4A7044B980C4
:1008400006D0E0FB020A46EF4E701CBD8008EBFFAD
:10085000EAFEE9FD80EBE98DF0A4FEE5F00208E98F
:10086000E9CDF9EAFEEBFFEF89F0A4FCE5F0CE89D3
:10087000F0A42EFFE435F0CD89F0A42DFEE435F090
:100880008067EF4E7005BD80D780C3EF8BF0A4ACBE
:10089000F0EE8BF0A42CFCE435F0F8EF8AF0A42CF9
:1008A000E5F038FCE433CB8DF0A42CFCE5F03BF80C
:1008B000EE8AF0A42CFCE5F038F8E433CF89F0A4FC
:1008C0002CFCE5F038CF3400CE89F0A42FFFE5F002
:1008D0003EFEE433C98DF0A42EFEE5F039CD8AF05A
:1008E000A42FFFE5F03EFEE43DFD33D0E0FB5007D2
:1008F0000BBB000F020A5AEC2CFCEF33FFEE33FE69
:06090000ED33FD020A3296
:10090600020A5AEC5D046005E859047003020A50B5
:10091600120A1B580460F6EC4860F2EC7004FDFE07
:10092600FF22C860DB2481C85009C39860025006C4
:10093600020A579850CAF582E9294B4A7005AB82DC
:10094600020A4675F0007C1A7880C3EF9BEE9AED9A
:1009560099400DC3EF9BFFEE9AFEED99FDE842F03C
:10096600DC23ACF0D0E0FFD0E0FED0E0FDAB82208F
:10097600E7101BEB60BAEC2CFCEF33FFEE33FEED19
:1009860033FD020A32E803F830E705C0F075F000DF
:10099600EF2FFFEE33FEED33FD40B830E7C280AAFD
:1009A60075F020800E75F010800575F0087D007ECC
:1009B600007F003392D530D503120A7EEC33401007
:1009C600EF33FFEE33FEED33FDEC33FCD5F0ED22D5
:0E09D600E5F0247EA2D513CC92E7CDCEFF2211
:1009E400EDD2E7CD33EC3392D524814006E4FFFE0B
:1009F400FDFC22FCE4CFCECDCC24E0501174FF806A
:100A0400EDC3CC13CCCD13CDCE13CECF13CF047006
:070A1400F030D5DE020A7E7E
:100A1B00E9D2E7C933E833F892D5EDD2E7CD33EC21
:070A2B0033FC5002B2D5229A
:100A3200EC30E7100FBF000C0EBE00080DBD000425
:100A42000BEB6014A2D5EB13FCED92E7FD2274FFD1
:100A5200FCFDFEFF22E480F8A2D574FF13FC7D802A
:030A6200E480EF3E
:100A6500BB010689828A83E0225002E722BBFE028F
:090A7500E32289828A83E49322C2
:0E0A7E00C3E49FFFE49EFEE49DFDE49CFC2289
:00000001FF
