:030000000209FDF5
:0C09FD00787FE4F6D8FD75811102080037
:0B0A0900766F6C746167653D002E0085
:100800001209A97BFF7A0A79091209821209EC758B
:100810000D008F0EE50E25E0F50AE50D33F5097F95
:10082000887E001209CCAE09AF0A7C007D641208F4
:10083000C9EF2430FFE43EFE1209627BFF7A0A7999
:1008400012120982AE09AF0A7C007D0A1208C91291
:100850000954AE09AF0A1209547F8C7E001209CCEC
:100860007F567E00120962E4F50BF50C050CE50CD1
:100870007002050BB410F5E50BB427F0E4F50BF5A9
:100880000C050CE50C7002050BB410F5E50BB42754
:10089000F0E4F50BF50CC3E50C9410E50B648094C3
:1008A000A7400302080C050CE50C70EA050B80E676
:1009A9007F387E001209CC7F0E7E001209CC7F06AB
:1009B9007E001209CC7F017E001209CC7F807E0067
:0309C9000209CC54
:1009CC008F90C285C286D287E4F50BF50C050CE539
:1009DC000C7002050BB410F5E50BB427F0C287229E
:0E0954007C007D0A1208C9ED2430FFE43CFE51
:100962008F90D285C286D287E4F50BF50C050CE593
:100972000C7002050BB410F5E50BB427F0C2872208
:100982008B0F8A108911AB0FAA10A9111208B0603F
:10099200150511E5117002051014F91208B0FF7E59
:0709A2000012096280E0224F
:1009EC00C281D280D2812082FDC28085A008AF084E
:0109FC0022D8
:1008B000BB010689828A83E0225002E722BBFE0246
:0908C000E32289828A83E4932279
:1008C900C2D5EC30E709B2D5E4C39DFDE49CFCEE4A
:1008D90030E715B2D5E4C39FFFE49EFE1208FFC3BB
:1008E900E49DFDE49CFC80031208FF30D507C3E4B6
:0608F9009FFFE49EFE22B9
:1008FF00BC000BBE0029EF8DF084FFADF022E4CCDD
:10090F00F875F008EF2FFFEE33FEEC33FCEE9DECA5
:10091F00984005FCEE9DFE0FD5F0E9E4CEFD22EDEB
:10092F00F8F5F0EE8420D21CFEADF075F008EF2F35
:10093F00FFED33FD4007985006D5F0F222C398FD26
:05094F000FD5F0EA22C3
:00000001FF
